{
  "_format": "hh-sol-artifact-1",
  "contractName": "RentofyContract",
  "sourceName": "contracts/rentofyContract.sol",
  "abi": [
    {
      "inputs": [
        {
          "internalType": "string",
          "name": "_ownerName",
          "type": "string"
        },
        {
          "internalType": "string[]",
          "name": "_ownerProducts",
          "type": "string[]"
        },
        {
          "internalType": "uint256",
          "name": "_rentalPrice",
          "type": "uint256"
        },
        {
          "internalType": "uint256",
          "name": "_maxRentingTime",
          "type": "uint256"
        },
        {
          "internalType": "uint256",
          "name": "_lateReturnFee",
          "type": "uint256"
        }
      ],
      "stateMutability": "nonpayable",
      "type": "constructor"
    },
    {
      "inputs": [],
      "name": "lateReturnFee",
      "outputs": [
        {
          "internalType": "uint256",
          "name": "",
          "type": "uint256"
        }
      ],
      "stateMutability": "view",
      "type": "function"
    },
    {
      "inputs": [],
      "name": "maxRentingTime",
      "outputs": [
        {
          "internalType": "uint256",
          "name": "",
          "type": "uint256"
        }
      ],
      "stateMutability": "view",
      "type": "function"
    },
    {
      "inputs": [],
      "name": "ownerName",
      "outputs": [
        {
          "internalType": "string",
          "name": "",
          "type": "string"
        }
      ],
      "stateMutability": "view",
      "type": "function"
    },
    {
      "inputs": [
        {
          "internalType": "address",
          "name": "",
          "type": "address"
        }
      ],
      "name": "productOwner",
      "outputs": [
        {
          "internalType": "string",
          "name": "ownerName",
          "type": "string"
        }
      ],
      "stateMutability": "view",
      "type": "function"
    },
    {
      "inputs": [
        {
          "internalType": "string",
          "name": "_renterName",
          "type": "string"
        }
      ],
      "name": "rent",
      "outputs": [],
      "stateMutability": "nonpayable",
      "type": "function"
    },
    {
      "inputs": [],
      "name": "rentalPrice",
      "outputs": [
        {
          "internalType": "uint256",
          "name": "",
          "type": "uint256"
        }
      ],
      "stateMutability": "view",
      "type": "function"
    },
    {
      "inputs": [
        {
          "internalType": "string",
          "name": "",
          "type": "string"
        }
      ],
      "name": "rentingInfo",
      "outputs": [
        {
          "internalType": "bool",
          "name": "isRenting",
          "type": "bool"
        },
        {
          "internalType": "uint256",
          "name": "rentalTime",
          "type": "uint256"
        },
        {
          "internalType": "uint256",
          "name": "expectedReturnTime",
          "type": "uint256"
        },
        {
          "internalType": "string",
          "name": "renterName",
          "type": "string"
        }
      ],
      "stateMutability": "view",
      "type": "function"
    },
    {
      "inputs": [],
      "name": "returnItem",
      "outputs": [],
      "stateMutability": "nonpayable",
      "type": "function"
    }
  ],
  "bytecode": "0x60806040523480156200001157600080fd5b5060405162001bbd38038062001bbd8339818101604052810190620000379190620004ae565b8460009081620000489190620007b5565b50604051806040016040528086815260200185815250600460003373ffffffffffffffffffffffffffffffffffffffff1673ffffffffffffffffffffffffffffffffffffffff1681526020019081526020016000206000820151816000019081620000b49190620007b5565b506020820151816001019080519060200190620000d3929190620000f7565b5090505082600181905550816002819055508060038190555050505050506200089c565b82805482825590600052602060002090810192821562000144579160200282015b8281111562000143578251829081620001329190620007b5565b509160200191906001019062000118565b5b50905062000153919062000157565b5090565b5b808211156200017b57600081816200017191906200017f565b5060010162000158565b5090565b5080546200018d90620005ae565b6000825580601f10620001a15750620001c2565b601f016020900490600052602060002090810190620001c19190620001c5565b5b50565b5b80821115620001e0576000816000905550600101620001c6565b5090565b6000604051905090565b600080fd5b600080fd5b600080fd5b600080fd5b6000601f19601f8301169050919050565b7f4e487b7100000000000000000000000000000000000000000000000000000000600052604160045260246000fd5b6200024d8262000202565b810181811067ffffffffffffffff821117156200026f576200026e62000213565b5b80604052505050565b600062000284620001e4565b905062000292828262000242565b919050565b600067ffffffffffffffff821115620002b557620002b462000213565b5b620002c08262000202565b9050602081019050919050565b60005b83811015620002ed578082015181840152602081019050620002d0565b60008484015250505050565b6000620003106200030a8462000297565b62000278565b9050828152602081018484840111156200032f576200032e620001fd565b5b6200033c848285620002cd565b509392505050565b600082601f8301126200035c576200035b620001f8565b5b81516200036e848260208601620002f9565b91505092915050565b600067ffffffffffffffff82111562000395576200039462000213565b5b602082029050602081019050919050565b600080fd5b6000620003c2620003bc8462000377565b62000278565b90508083825260208201905060208402830185811115620003e857620003e7620003a6565b5b835b818110156200043657805167ffffffffffffffff811115620004115762000410620001f8565b5b80860162000420898262000344565b85526020850194505050602081019050620003ea565b5050509392505050565b600082601f830112620004585762000457620001f8565b5b81516200046a848260208601620003ab565b91505092915050565b6000819050919050565b620004888162000473565b81146200049457600080fd5b50565b600081519050620004a8816200047d565b92915050565b600080600080600060a08688031215620004cd57620004cc620001ee565b5b600086015167ffffffffffffffff811115620004ee57620004ed620001f3565b5b620004fc8882890162000344565b955050602086015167ffffffffffffffff81111562000520576200051f620001f3565b5b6200052e8882890162000440565b9450506040620005418882890162000497565b9350506060620005548882890162000497565b9250506080620005678882890162000497565b9150509295509295909350565b600081519050919050565b7f4e487b7100000000000000000000000000000000000000000000000000000000600052602260045260246000fd5b60006002820490506001821680620005c757607f821691505b602082108103620005dd57620005dc6200057f565b5b50919050565b60008190508160005260206000209050919050565b60006020601f8301049050919050565b600082821b905092915050565b600060088302620006477fffffffffffffffffffffffffffffffffffffffffffffffffffffffffffffffff8262000608565b62000653868362000608565b95508019841693508086168417925050509392505050565b6000819050919050565b600062000696620006906200068a8462000473565b6200066b565b62000473565b9050919050565b6000819050919050565b620006b28362000675565b620006ca620006c1826200069d565b84845462000615565b825550505050565b600090565b620006e1620006d2565b620006ee818484620006a7565b505050565b5b8181101562000716576200070a600082620006d7565b600181019050620006f4565b5050565b601f82111562000765576200072f81620005e3565b6200073a84620005f8565b810160208510156200074a578190505b620007626200075985620005f8565b830182620006f3565b50505b505050565b600082821c905092915050565b60006200078a600019846008026200076a565b1980831691505092915050565b6000620007a5838362000777565b9150826002028217905092915050565b620007c08262000574565b67ffffffffffffffff811115620007dc57620007db62000213565b5b620007e88254620005ae565b620007f58282856200071a565b600060209050601f8311600181146200082d576000841562000818578287015190505b62000824858262000797565b86555062000894565b601f1984166200083d86620005e3565b60005b82811015620008675784890151825560018201915060208501945060208101905062000840565b8683101562000887578489015162000883601f89168262000777565b8355505b6001600288020188555050505b505050505050565b61131180620008ac6000396000f3fe608060405234801561001057600080fd5b50600436106100885760003560e01c8063c0d047f01161005b578063c0d047f014610115578063dc28ad351461011f578063e01810281461013d578063e3736e841461015b57610088565b80631c43cd041461008d57806324ed2b7c146100ab5780635277081c146100db57806365ac2320146100f7575b600080fd5b61009561018e565b6040516100a2919061097f565b60405180910390f35b6100c560048036038101906100c09190610a0c565b610194565b6040516100d29190610ac9565b60405180910390f35b6100f560048036038101906100f09190610c20565b61023a565b005b6100ff61047a565b60405161010c9190610ac9565b60405180910390f35b61011d610508565b005b610127610822565b604051610134919061097f565b60405180910390f35b610145610828565b604051610152919061097f565b60405180910390f35b61017560048036038101906101709190610c20565b61082e565b6040516101859493929190610c84565b60405180910390f35b60015481565b60046020528060005260406000206000915090508060000180546101b790610cff565b80601f01602080910402602001604051908101604052809291908181526020018280546101e390610cff565b80156102305780601f1061020557610100808354040283529160200191610230565b820191906000526020600020905b81548152906001019060200180831161021357829003601f168201915b5050505050905081565b6000620151804261024b9190610d8e565b905060005b600460003373ffffffffffffffffffffffffffffffffffffffff1673ffffffffffffffffffffffffffffffffffffffff16815260200190815260200160002060010180549050811015610475576005600460003373ffffffffffffffffffffffffffffffffffffffff1673ffffffffffffffffffffffffffffffffffffffff16815260200190815260200160002060010182815481106102f3576102f2610dbf565b5b9060005260206000200160405161030a9190610e91565b908152602001604051809103902060000160009054906101000a900460ff1615610369576040517f08c379a000000000000000000000000000000000000000000000000000000000815260040161036090610ef4565b60405180910390fd5b6040518060800160405280600115158152602001838152602001600254846103919190610f14565b8152602001848152506005600460003373ffffffffffffffffffffffffffffffffffffffff1673ffffffffffffffffffffffffffffffffffffffff16815260200190815260200160002060010183815481106103f0576103ef610dbf565b5b906000526020600020016040516104079190610e91565b908152602001604051809103902060008201518160000160006101000a81548160ff0219169083151502179055506020820151816001015560408201518160020155606082015181600301908161045e91906110df565b50905050808061046d906111b1565b915050610250565b505050565b6000805461048790610cff565b80601f01602080910402602001604051908101604052809291908181526020018280546104b390610cff565b80156105005780601f106104d557610100808354040283529160200191610500565b820191906000526020600020905b8154815290600101906020018083116104e357829003601f168201915b505050505081565b600062015180426105199190610d8e565b905060005b600460003373ffffffffffffffffffffffffffffffffffffffff1673ffffffffffffffffffffffffffffffffffffffff1681526020019081526020016000206001018054905081101561081e576005600460003373ffffffffffffffffffffffffffffffffffffffff1673ffffffffffffffffffffffffffffffffffffffff16815260200190815260200160002060010182815481106105c1576105c0610dbf565b5b906000526020600020016040516105d89190610e91565b908152602001604051809103902060000160009054906101000a900460ff16610636576040517f08c379a000000000000000000000000000000000000000000000000000000000815260040161062d90611245565b60405180910390fd5b60006005600460003373ffffffffffffffffffffffffffffffffffffffff1673ffffffffffffffffffffffffffffffffffffffff168152602001908152602001600020600101838154811061068e5761068d610dbf565b5b906000526020600020016040516106a59190610e91565b908152602001604051809103902060020154831115610758576003546005600460003373ffffffffffffffffffffffffffffffffffffffff1673ffffffffffffffffffffffffffffffffffffffff168152602001908152602001600020600101848154811061071757610716610dbf565b5b9060005260206000200160405161072e9190610e91565b9081526020016040518091039020600201548461074b9190611265565b6107559190611299565b90505b6005600460003373ffffffffffffffffffffffffffffffffffffffff1673ffffffffffffffffffffffffffffffffffffffff16815260200190815260200160002060010183815481106107ae576107ad610dbf565b5b906000526020600020016040516107c59190610e91565b9081526020016040518091039020600080820160006101000a81549060ff0219169055600182016000905560028201600090556003820160006108089190610909565b5050508080610816906111b1565b91505061051e565b5050565b60035481565b60025481565b6005818051602081018201805184825260208301602085012081835280955050505050506000915090508060000160009054906101000a900460ff169080600101549080600201549080600301805461088690610cff565b80601f01602080910402602001604051908101604052809291908181526020018280546108b290610cff565b80156108ff5780601f106108d4576101008083540402835291602001916108ff565b820191906000526020600020905b8154815290600101906020018083116108e257829003601f168201915b5050505050905084565b50805461091590610cff565b6000825580601f106109275750610946565b601f0160209004906000526020600020908101906109459190610949565b5b50565b5b8082111561096257600081600090555060010161094a565b5090565b6000819050919050565b61097981610966565b82525050565b60006020820190506109946000830184610970565b92915050565b6000604051905090565b600080fd5b600080fd5b600073ffffffffffffffffffffffffffffffffffffffff82169050919050565b60006109d9826109ae565b9050919050565b6109e9816109ce565b81146109f457600080fd5b50565b600081359050610a06816109e0565b92915050565b600060208284031215610a2257610a216109a4565b5b6000610a30848285016109f7565b91505092915050565b600081519050919050565b600082825260208201905092915050565b60005b83811015610a73578082015181840152602081019050610a58565b60008484015250505050565b6000601f19601f8301169050919050565b6000610a9b82610a39565b610aa58185610a44565b9350610ab5818560208601610a55565b610abe81610a7f565b840191505092915050565b60006020820190508181036000830152610ae38184610a90565b905092915050565b600080fd5b600080fd5b7f4e487b7100000000000000000000000000000000000000000000000000000000600052604160045260246000fd5b610b2d82610a7f565b810181811067ffffffffffffffff82111715610b4c57610b4b610af5565b5b80604052505050565b6000610b5f61099a565b9050610b6b8282610b24565b919050565b600067ffffffffffffffff821115610b8b57610b8a610af5565b5b610b9482610a7f565b9050602081019050919050565b82818337600083830152505050565b6000610bc3610bbe84610b70565b610b55565b905082815260208101848484011115610bdf57610bde610af0565b5b610bea848285610ba1565b509392505050565b600082601f830112610c0757610c06610aeb565b5b8135610c17848260208601610bb0565b91505092915050565b600060208284031215610c3657610c356109a4565b5b600082013567ffffffffffffffff811115610c5457610c536109a9565b5b610c6084828501610bf2565b91505092915050565b60008115159050919050565b610c7e81610c69565b82525050565b6000608082019050610c996000830187610c75565b610ca66020830186610970565b610cb36040830185610970565b8181036060830152610cc58184610a90565b905095945050505050565b7f4e487b7100000000000000000000000000000000000000000000000000000000600052602260045260246000fd5b60006002820490506001821680610d1757607f821691505b602082108103610d2a57610d29610cd0565b5b50919050565b7f4e487b7100000000000000000000000000000000000000000000000000000000600052601260045260246000fd5b7f4e487b7100000000000000000000000000000000000000000000000000000000600052601160045260246000fd5b6000610d9982610966565b9150610da483610966565b925082610db457610db3610d30565b5b828204905092915050565b7f4e487b7100000000000000000000000000000000000000000000000000000000600052603260045260246000fd5b600081905092915050565b60008190508160005260206000209050919050565b60008154610e1b81610cff565b610e258186610dee565b94506001821660008114610e405760018114610e5557610e88565b60ff1983168652811515820286019350610e88565b610e5e85610df9565b60005b83811015610e8057815481890152600182019150602081019050610e61565b838801955050505b50505092915050565b6000610e9d8284610e0e565b915081905092915050565b7f416c72656164792072656e74696e670000000000000000000000000000000000600082015250565b6000610ede600f83610a44565b9150610ee982610ea8565b602082019050919050565b60006020820190508181036000830152610f0d81610ed1565b9050919050565b6000610f1f82610966565b9150610f2a83610966565b9250828201905080821115610f4257610f41610d5f565b5b92915050565b60006020601f8301049050919050565b600082821b905092915050565b600060088302610f957fffffffffffffffffffffffffffffffffffffffffffffffffffffffffffffffff82610f58565b610f9f8683610f58565b95508019841693508086168417925050509392505050565b6000819050919050565b6000610fdc610fd7610fd284610966565b610fb7565b610966565b9050919050565b6000819050919050565b610ff683610fc1565b61100a61100282610fe3565b848454610f65565b825550505050565b600090565b61101f611012565b61102a818484610fed565b505050565b5b8181101561104e57611043600082611017565b600181019050611030565b5050565b601f8211156110935761106481610df9565b61106d84610f48565b8101602085101561107c578190505b61109061108885610f48565b83018261102f565b50505b505050565b600082821c905092915050565b60006110b660001984600802611098565b1980831691505092915050565b60006110cf83836110a5565b9150826002028217905092915050565b6110e882610a39565b67ffffffffffffffff81111561110157611100610af5565b5b61110b8254610cff565b611116828285611052565b600060209050601f8311600181146111495760008415611137578287015190505b61114185826110c3565b8655506111a9565b601f19841661115786610df9565b60005b8281101561117f5784890151825560018201915060208501945060208101905061115a565b8683101561119c5784890151611198601f8916826110a5565b8355505b6001600288020188555050505b505050505050565b60006111bc82610966565b91507fffffffffffffffffffffffffffffffffffffffffffffffffffffffffffffffff82036111ee576111ed610d5f565b5b600182019050919050565b7f4e6f742072656e74696e67000000000000000000000000000000000000000000600082015250565b600061122f600b83610a44565b915061123a826111f9565b602082019050919050565b6000602082019050818103600083015261125e81611222565b9050919050565b600061127082610966565b915061127b83610966565b925082820390508181111561129357611292610d5f565b5b92915050565b60006112a482610966565b91506112af83610966565b92508282026112bd81610966565b915082820484148315176112d4576112d3610d5f565b5b509291505056fea2646970667358221220c042ba3ed0a9a6439dce38e7c05596027166ddb07b17756ab04b7e2795cf1d3c64736f6c63430008120033",
  "linkReferences": {},
  "deployedLinkReferences": {}
}